:020000040800F2
:1000000000000220FD3200084D1000087B020008AD
:100010004F100008511000085310000800000000A5
:100020000000000000000000000000005510000863
:100030005710000800000000FF010008811B0008A5
:100040004D3300084D3300084D3300084D33000890
:100050004D3300084D3300084D3300084D33000880
:100060004D3300084D3300084D3300084D33000870
:100070004D3300084D3300084D3300084D33000860
:100080004D3300084D3300084D3300084D33000850
:100090004D3300084D3300084D3300084D33000840
:1000A0004D3300084D3300084D3300084D33000830
:1000B0004D3300084D3300084D3300084D33000820
:1000C0004D3300084D3300084D3300084D33000810
:1000D0004D3300084D3300084D3300084D33000800
:1000E0004D3300084D3300084D3300084D330008F0
:1000F0004D3300084D3300084D3300084D330008E0
:100100004D3300084D3300084D3300084D330008CF
:100110004D3300084D3300084D3300084D330008BF
:100120004D3300084D3300084D3300084D330008AF
:100130004D3300084D3300084D3300084D3300089F
:100140004D3300084D3300084D3300084D3300088F
:100150004D3300084D3300084D3300084D3300087F
:100160004D3300084D3300084D3300084D3300086F
:100170004D3300084D3300084D33000800000000E7
:080180004D3300084D33000867
:1001900010B5054C237833B9044B13B10448AFF3C1
:1001A00000800123237010BD280200200000000001
:1001B000C45D000808B5034B1BB103490348AFF306
:1001C000008008BD000000002C020020C45D000873
:1001D000EFF3108072B6704780F310887047344A8E
:1001E0001368012B04D04FF001031360314A1060F3
:1001F000314A116031484FF0805101607047EFF390
:10020000108272B62A48016891B14FF00001016076
:100210002848016829B1EFF3098121E9F00F00684E
:100220000160254909680968B1E8F00F81F3098880
:1002300082F310884EF0040E70471F4908601D4974
:100240004FF0000008601A494FF0010008601C4898
:100250004FF47F01D0F8002041EA02010160174805
:100260004FF08051016017480068006800BF80F3BC
:10027000088861B662B6704700BFEFF308801EF0D1
:10028000040F01D0EFF3098020E9F00F40F804EDEE
:100290001EF0040F02D080F3098801E080F3088883
:1002A00000B502F069FF5DF804EB4EF0040E7047F4
:1002B000B4AF0020B0AF0020ACAF002004ED00E0F0
:1002C00020ED00E008ED00E0034613F8012B002AC2
:1002D000FBD1181A01387047000000000000000030
:1002E00001F0FF01102A2BDB10F0070F08D010F8E7
:1002F000013B013A8B422DD010F0070F42B3F6D1EB
:10030000F0B441EA012141EA014122F007047FF003
:1003100000070023F0E80256083C85EA010586EA5A
:10032000010685FA47F5A3FA87F586FA47F6A5FA96
:1003300087F68EB9EED1F0BC01F0FF0102F00702A2
:1003400032B110F8013B013A83EA010313B1F8D14D
:100350000020704701387047002D06BF354603382E
:10036000073815F0010F07D1013015F4807F02BF67
:10037000013015F4C03F0130F0BC0138704700BFB8
:1003800081F0004102E000BF83F0004330B54FEA46
:1003900041044FEA430594EA050F08BF90EA020FB3
:1003A0001FBF54EA000C55EA020C7FEA645C7FEA46
:1003B000655C00F0E2804FEA5454D4EB5555B8BF69
:1003C0006D420CDD2C4480EA020281EA030382EADA
:1003D000000083EA010180EA020281EA0303362D6C
:1003E00088BF30BD11F0004F4FEA01314FF4801C3F
:1003F0004CEA113102D0404261EB410113F0004F51
:100400004FEA03334CEA133302D0524263EB430307
:1004100094EA050F00F0A780A4F10104D5F1200EA5
:100420000DDB02FA0EFC22FA05F2801841F1000100
:1004300003FA0EF2801843FA05F359410EE0A5F1D4
:1004400020050EF1200E012A03FA0EFC28BF4CF005
:10045000020C43FA05F3C01851EBE37101F00045BB
:1004600007D54FF0000EDCF1000C7EEB00006EEBC8
:100470000101B1F5801F1BD3B1F5001F0CD3490852
:100480005FEA30004FEA3C0C04F101044FEA4452A9
:1004900012F5800F80F09A80BCF1004F08BF5FEA30
:1004A000500C50F1000041EB045141EA050130BD10
:1004B0005FEA4C0C404141EB0101013C28BFB1F522
:1004C000801FE9D291F0000F04BF01460020B1FA6D
:1004D00081F308BF2033A3F10B03B3F120020CDA40
:1004E0000C3208DD02F1140CC2F10C0201FA0CF01E
:1004F00021FA02F10CE002F11402D8BFC2F1200C83
:1005000001FA02F120FA0CFCDCBF41EA0C01904038
:10051000E41AA2BF01EB0451294330BD6FEA040481
:100520001F3C1CDA0C340EDC04F11404C4F120026C
:1005300020FA04F001FA02F340EA030021FA04F37E
:1005400045EA030130BDC4F10C04C4F1200220FAD5
:1005500002F001FA04F340EA0300294630BD21FA13
:1005600004F0294630BD94F0000F83F4801306BFD9
:1005700081F480110134013D4EE77FEA645C18BFCD
:100580007FEA655C29D094EA050F08BF90EA020F64
:1005900005D054EA000C04BF1946104630BD91EA5C
:1005A000030F1EBF0021002030BD5FEA545C05D15F
:1005B0004000494128BF41F0004130BD14F580049E
:1005C0003CBF01F5801130BD01F0004545F0FE4112
:1005D00041F470014FF0000030BD7FEA645C1ABF47
:1005E000194610467FEA655C1CBF0B46024650EA7E
:1005F000013406BF52EA033591EA030F41F40021AA
:1006000030BD00BF90F0000F04BF0021704730B52F
:100610004FF4806404F132044FF000054FF0000104
:1006200050E700BF90F0000F04BF0021704730B5C5
:100630004FF4806404F1320410F0004548BF40429A
:100640004FF000013EE700BF42004FEAE2014FEAEF
:1006500031014FEA02701FBF12F07F4393F07F4FCA
:1006600081F06051704732F07F4208BF704793F0CD
:100670007F4F04BF41F40021704730B54FF46074E0
:1006800001F0004521F000411CE700BF50EA0102E3
:1006900008BF704730B54FF000050AE050EA01028C
:1006A00008BF704730B511F0004502D5404261EBFC
:1006B00041014FF4806404F132045FEA915C3FF43D
:1006C000D8AE4FF003025FEADC0C18BF03325FEADA
:1006D000DC0C18BF033202EBDC02C2F1200300FA8B
:1006E00003FC20FA02F001FA03FE40EA0E0021FAB0
:1006F00002F11444BDE600BF70B54FF0FF0C4CF49E
:10070000E06C1CEA11541DBF1CEA135594EA0C0F4F
:1007100095EA0C0F00F0DEF82C4481EA030621EA8A
:100720004C5123EA4C5350EA013518BF52EA0335C5
:1007300041F4801143F4801338D0A0FB02CE4FF077
:100740000005E1FB02E506F00042E0FB03E54FF0A7
:100750000006E1FB03569CF0000F18BF4EF0010E9F
:10076000A4F1FF04B6F5007F64F5407404D25FEA9B
:100770004E0E6D4146EB060642EAC62141EA55514E
:100780004FEAC52040EA5E504FEACE2EB4F1FD0C90
:1007900088BFBCF5E06F1ED8BEF1004F08BF5FEA0E
:1007A000500E50F1000041EB045170BD06F00046C0
:1007B00046EA010140EA020081EA0301B4EB5C046D
:1007C000C2BFD4EB0C0541EA045170BD41F4801165
:1007D0004FF0000E013C00F3AB8014F1360FDEBF8A
:1007E000002001F0004170BDC4F10004203C35DA66
:1007F0000C341BDC04F11404C4F1200500FA05F3E9
:1008000020FA04F001FA05F240EA020001F0004289
:1008100021F0004110EBD37021FA04F642EB0601FF
:100820005EEA430E08BF20EAD37070BDC4F10C0429
:10083000C4F1200500FA04F320FA05F001FA04F2ED
:1008400040EA020001F0004110EBD37041F10001D9
:100850005EEA430E08BF20EAD37070BDC4F12005E4
:1008600000FA05F24EEA020E20FA04F301FA05F24C
:1008700043EA020321FA04F001F0004121FA04F2F4
:1008800020EA020000EBD3705EEA430E08BF20EAC4
:10089000D37070BD94F0000F0FD101F000464000FE
:1008A00041EB010111F4801F08BF013CF7D041EA80
:1008B000060195F0000F18BF704703F00046520084
:1008C00043EB030313F4801F08BF013DF7D043EA55
:1008D0000603704794EA0C0F0CEA135518BF95EA0B
:1008E0000C0F0CD050EA410618BF52EA4306D1D192
:1008F00081EA030101F000414FF0000070BD50EAB1
:10090000410606BF1046194652EA430619D094EA3A
:100910000C0F02D150EA013613D195EA0C0F05D124
:1009200052EA03361CBF104619460AD181EA030178
:1009300001F0004141F0FE4141F470014FF0000030
:1009400070BD41F0FE4141F4780170BD70B54FF0CB
:10095000FF0C4CF4E06C1CEA11541DBF1CEA13554B
:1009600094EA0C0F95EA0C0F00F0A7F8A4EB05042D
:1009700081EA030E52EA03354FEA013100F0888024
:100980004FEA03334FF0805545EA131343EA1263ED
:100990004FEA022245EA111545EA10654FEA0026A2
:1009A0000EF000419D4208BF964244F1FD0404F55B
:1009B000407402D25B084FEA3202B61A65EB0305B7
:1009C0005B084FEA32024FF480104FF4002CB6EB74
:1009D000020E75EB030E22BFB61A754640EA0C00F4
:1009E0005B084FEA3202B6EB020E75EB030E22BF34
:1009F000B61A754640EA5C005B084FEA3202B6EB75
:100A0000020E75EB030E22BFB61A754640EA9C0033
:100A10005B084FEA3202B6EB020E75EB030E22BF03
:100A2000B61A754640EADC0055EA060E18D04FEAC1
:100A3000051545EA16754FEA06164FEAC30343EA61
:100A400052734FEAC2025FEA1C1CC0D111F4801F2E
:100A50000BD141EA00014FF000004FF0004CB6E727
:100A600011F4801F04BF01430020B4F1FD0C88BFC6
:100A7000BCF5E06F3FF6AFAEB5EB030C04BFB6EBD1
:100A8000020C5FEA500C50F1000041EB045170BDC4
:100A90000EF0004E4EEA113114EB5C04C2BFD4EBF1
:100AA0000C0541EA045170BD41F480114FF0000E75
:100AB000013C90E645EA060E8DE60CEA135594EAF1
:100AC0000C0F08BF95EA0C0F3FF43BAF94EA0C0FF4
:100AD0000AD150EA01347FF434AF95EA0C0F7FF469
:100AE00025AF104619462CE795EA0C0F06D152EABD
:100AF00003353FF4FDAE1046194622E750EA4106A1
:100B000018BF52EA43067FF4C5AE50EA41047FF4B1
:100B10000DAF52EA43057FF4EBAE12E74FF0FF3C16
:100B200006E000BF4FF0010C02E000BF4FF0010CE7
:100B30004DF804CD4FEA410C7FEA6C5C4FEA430C60
:100B400018BF7FEA6C5C1BD001B050EA410C0CBFAF
:100B500052EA430C91EA030F02BF90EA020F002011
:100B6000704710F1000F91EA030F58BF994208BF78
:100B700090422CBFD8176FEAE37040F00100704735
:100B80004FEA410C7FEA6C5C02D150EA013C07D18C
:100B90004FEA430C7FEA6C5CD6D152EA033CD3D0D7
:100BA0005DF8040B704700BF8446104662468C46D1
:100BB0001946634600E000BF01B5FFF7B7FF002804
:100BC00048BF10F1000F01BD4DF808EDFFF7F4FF2D
:100BD0000CBF012000205DF808FB00BF4DF808EDB8
:100BE000FFF7EAFF34BF012000205DF808FB00BFDB
:100BF0004DF808EDFFF7E0FF94BF012000205DF8FD
:100C000008FB00BF4DF808EDFFF7CEFF94BF0120B1
:100C100000205DF808FB00BF4DF808EDFFF7C4FFAA
:100C200034BF012000205DF808FB00BF4FEA410CF3
:100C30007FEA6C5C02D150EA013C0AD14FEA430CD6
:100C40007FEA6C5C02D152EA033C02D14FF0000013
:100C500070474FF0010070474FEA410212F5001251
:100C600015D211D56FF47873B3EB625212D94FEAF3
:100C7000C12343F0004343EA505311F0004F23FADD
:100C800002F018BF404270474FF00000704750EA32
:100C9000013005D111F0004008BF6FF000407047EF
:100CA0004FF00000704700BF53B94AB9002908BF90
:100CB00000281CBF4FF0FF314FF0FF3000F06CB93F
:100CC000ADF1080C6DE904CE00F006F8DDF804E0A3
:100CD000DDE9022304B070472DE9F047089E0D4678
:100CE00004468E46002B40F082808A42174646D941
:100CF000B2FA82F24AB1C2F1200105FA02F320FAF7
:100D000001F1974041EA030E94404FEA1748230C43
:100D1000BEFBF8FCB9B208FB1CEE43EA0E430CFB29
:100D200001F098420AD9FB180CF1FF3580F01681CA
:100D3000984240F21381ACF1020C3B441B1AA4B25E
:100D4000B3FBF8F008FB103344EA034400FB01F165
:100D5000A14209D93C1900F1FF3380F00181A14281
:100D600040F2FE8002383C44641A40EA0C40002104
:100D70001EB1D4400023C6E90043BDE8F08702B9A4
:100D8000FFDEB2FA82F2002A4FD1CB1B4FEA174E98
:100D90001FFA87F80121B3FBFEFC250C0EFB1C3368
:100DA00045EA034508FB0CF3AB4207D97D190CF16A
:100DB000FF3002D2AB4200F2E7808446ED1AA3B2C4
:100DC000B5FBFEF00EFB105543EA054408FB00F8A6
:100DD000A04507D93C1900F1FF3302D2A04500F22B
:100DE000D7801846A4EB080440EA0C40C0E78B42C9
:100DF00008D9002E00F0AF800021C6E900050846A2
:100E0000BDE8F087B3FA83F100294BD1AB4202D39E
:100E1000824200F2B780841A65EB030301209E46EC
:100E2000002EAAD0C6E9004EA7E7C2F1200C01FAB5
:100E300002F3974020FA0CF04FEA174E21FA0CFC0F
:100E40001843BCFBFEF1050C0EFB11CC1FFA87F812
:100E500045EA0C4501FB08F3AB4204FA02F409D958
:100E60007D1901F1FF3C80F08B80AB4240F288801D
:100E700002393D44EB1A85B2B3FBFEF00EFB103392
:100E800045EA034500FB08F3AB4207D97D1900F1A1
:100E9000FF3C71D2AB426FD902383D44EB1A40EAB5
:100EA000014178E7C1F1200C8B4022FA0CF71F4377
:100EB00020FA0CF405FA01F34FEA174E25FA0CF567
:100EC0001C43230CB5FBFEF91FFA87F80EFB1955DE
:100ED00043EA054509FB08FAAA4502FA01F200FABD
:100EE00001F308D97D1909F1FF3047D2AA4545D948
:100EF000A9F102093D44A5EB0A05A4B2B5FBFEF039
:100F00000EFB105544EA054400FB08F8A04507D93C
:100F10003C1900F1FF352DD2A0452BD902383C44B5
:100F200040EA0940A4EB0804A0FB02894C45C646F0
:100F30004D4619D316D05EB1B3EB0E0264EB050437
:100F400004FA0CFCCA404CEA0202CC40C6E9002478
:100F50000021BDE8F087314630460EE7AC46EDE6AD
:100F6000184601E74345E6D2B8EB020E69EB0705E8
:100F70000138E0E72846D3E760468FE78146BAE7C5
:100F8000614677E708464BE7ACF1020C3D4415E7B4
:100F900002383C4426E700BF704700BF024B4FF0C9
:100FA00000629A60704700BF00ED00E0224B9B6832
:100FB00003F00C03042B14D0082B16D01BB11F4BCD
:100FC0001F4A1A6002E01D4B1D4A1A601A4B9B68AB
:100FD000C3F303131B4AD15C184A1368CB40136058
:100FE0007047164B184A1A60F0E7134B5A685B6853
:100FF00003F03F0312F4800F13D0134AB2FBF3F255
:101000000D4B5B68C3F3881303FB02F30A4A526873
:10101000C2F3014201325200B3FBF2F3074A1360FC
:10102000D4E7074AB2FBF3F2034B5B68C3F38813C0
:1010300003FB02F3EAE700BF003802400000002093
:101040000024F400E05D000800127A007047FEE71B
:10105000FEE7FEE770477047FEE7000030B595B049
:101060003022002108A802F097F900240394049488
:1010700005940694079401941C4B1A6C42F080521C
:101080001A641B6C03F080530193019B0294184B6C
:101090001A6842F480421A601B6803F4804302938A
:1010A000029B012308934FF48033099302250E9588
:1010B0004FF480030F93082310934FF4A8731193F8
:1010C00012950423139308A800F030F80F2303931C
:1010D000049505944FF4A05306934FF4805307935F
:1010E000052103A800F07EFA15B030BD003802409B
:1010F0000070004082B0002100910B4B5A6C42F40A
:1011000080425A645A6C02F480420092009A019123
:101110001A6C42F080521A641B6C03F080530193E6
:10112000019B02B0704700BF00380240002800F069
:10113000D98170B582B00446036813F0010F3BD02B
:10114000A64B9B6803F00C03042B2CD0A34B9B688D
:1011500003F00C03082B21D06368B3F5803F4FD018
:10116000B3F5A02F52D09D4B1A6822F480321A603A
:101170001A6822F480221A606368002B50D000F0B5
:10118000ADFC0546954B1B6813F4003F14D100F0ED
:10119000A5FC401B6428F5D90320AAE18F4B5B68AE
:1011A00013F4800FD8D08D4B1B6813F4003F03D08D
:1011B0006368002B00F09881236813F0020F54D06D
:1011C000864B9B6813F00C0F3ED0844B9B6803F05A
:1011D0000C03082B33D0E368002B67D0804B01222F
:1011E0001A6000F07BFC05467C4B1B6813F0020F75
:1011F00053D100F073FC401B0228F5D9032078E19D
:10120000764A136843F480331360B5E7734B1A686A
:1012100042F480221A601A6842F480321A60ABE706
:1012200000F05CFC05466D4B1B6813F4003FC3D017
:1012300000F054FC401B6428F5D9032059E1674BAA
:101240005B6813F4800FC6D1644B1B6813F0020F68
:1012500003D0E368012B40F04981604A136823F012
:10126000F803216943EAC1031360236813F0080FF0
:1012700040D0636963B35B4B01221A6000F02EFC1F
:101280000546564B5B6F13F0020F33D100F026FC7E
:10129000401B0228F5D903202BE1504A136823F0A4
:1012A000F803216943EAC1031360DEE74C4B0022D7
:1012B0001A6000F013FC0546484B1B6813F0020F40
:1012C000D3D000F00BFC401B0228F5D9032010E11D
:1012D000444B00221A6000F001FC05463F4B5B6F57
:1012E00013F0020F06D000F0F9FB401B0228F5D9DD
:1012F0000320FEE0236813F0040F78D0374B1B6CFB
:1013000013F0805F0DD100230193344B1A6C42F02F
:1013100080521A641B6C03F080530193019B0125DA
:1013200000E00025304B1B6813F4807F21D0A368B8
:10133000012B32D0052B36D0284B1A6F22F0010238
:101340001A671A6F22F004021A67A368002B34D0C0
:1013500000F0C4FB0646214B1B6F13F0020F45D172
:1013600000F0BCFB801B41F288339842F3D9032084
:10137000BFE01D4A136843F48073136000F0AEFBB6
:101380000646194B1B6813F4807FD0D100F0A6FBF2
:10139000801B0228F5D90320ABE0104A136F43F0FD
:1013A00001031367D1E70D4B1A6F42F004021A676D
:1013B0001A6F42F001021A67C7E700F08FFB06467A
:1013C000064B1B6F13F0020F10D000F087FB801B41
:1013D00041F288339842F3D903208AE00038024072
:1013E00000004742800E474200700040E5B9A36903
:1013F000002B7DD0464A926802F00C02082A51D098
:10140000022B17D0434B00221A6000F067FB044602
:101410003F4B1B6813F0007F42D000F05FFB001BC6
:101420000228F5D9032064E0394A136C23F0805375
:101430001364DCE7374B00221A6000F04FFB0546CF
:10144000334B1B6813F0007F06D000F047FB401BB6
:101450000228F5D903204CE0E369226A1343626A4B
:1014600043EA8213A26A5208013A43EA0243E26A5B
:1014700043EA0263264A5360264B01221A6000F0B9
:101480002DFB0446224B1B6813F0007F06D100F0B1
:1014900025FB001B0228F5D903202AE0002028E0C4
:1014A000002026E0012B26D0194B5B6803F4800155
:1014B000E269914221D103F03F02216A8A421ED1A2
:1014C000616A47F6C0721A408A421AD103F4403268
:1014D000A16A8A4217D103F07063E26A934214D181
:1014E000002006E001207047012002E0012000E01A
:1014F000002002B070BD0120FBE70120F9E70120C8
:10150000F7E70120F5E70120F3E70120F1E700BF4D
:101510000038024060004742F8B52F4B9B6803F04B
:101520000C03042B53D0082B53D12B4B5A6802F0D9
:101530003F025B6813F4800F28D0274B5B68C3F32E
:10154000881358010021C01A61F100018E0146EA9A
:10155000906687013C1A66EB0105E90041EA547187
:10156000E000C01841F100014B0243EAD0534402AD
:10157000204619460023FFF797FB174B5B68C3F320
:10158000014301335B00B0FBF3F023E0124B5B68D7
:10159000C3F388135C010025E41A65F10005AE0170
:1015A00046EA9466A701381B66EB0501CC0044EAC5
:1015B0005074C500E81844F100018B0243EA9053CF
:1015C0008402204619460023FFF76EFBD5E7034847
:1015D00000E00348F8BD00BF0038024000127A0066
:1015E0000024F400002800F09B8070B50D460446EE
:1015F0004F4B1B6803F00F038B4208D2CBB24C4A0F
:101600001370136803F00F038B4240F08B80236844
:1016100013F0020F17D013F0040F04D0454A93685B
:1016200043F4E0539360236813F0080F04D0414A59
:10163000936843F4604393603E4A936823F0F00359
:10164000A1680B439360236813F0010F32D06368E5
:10165000012B21D09A1E012A25D9364A126812F090
:10166000020F61D033498A6822F0030213438B6072
:1016700000F034FA06462F4B9B6803F00C036268B7
:10168000B3EB820F16D000F029FA801B41F28833A9
:101690009842F0D9032042E0264A126812F4003F33
:1016A000E0D101203BE0234A126812F0007FD9D13B
:1016B000012034E01E4B1B6803F00F03AB4207D937
:1016C000EAB21B4B1A701B6803F00F03AB422DD11B
:1016D000236813F0040F06D0164A936823F4E053EE
:1016E000E1680B439360236813F0080F07D0114A99
:1016F000936823F46043216943EAC1039360FFF7D1
:101700000BFF0C4B9B68C3F303130B4AD35CD8400D
:101710000A4B18600A4B186800F0CCF9002070BD25
:10172000012070470120FAE70120F8E70120F6E7E1
:10173000003C024000380240E05D0008000000204C
:1017400004000020014B1868704700BF0000002013
:1017500008B5FFF7F7FF044B9B68C3F38223034AE6
:10176000D35CD84008BD00BF00380240F05D0008DF
:1017700008B5FFF7E7FF044B9B68C3F34233034A06
:10178000D35CD84008BD00BF00380240F05D0008BF
:1017900070B504460268D36823F00C03D360016877
:1017A0000A6922F47C528369C0690343206A0343B7
:1017B000E0680343134343F400630B612168CA6884
:1017C00022F4164222F00C02A368206903436069E8
:1017D0000343134343F40043CB602268536923F46B
:1017E000407353612368334A934233D002F58062D9
:1017F00093422FD0FFF7ACFF0026051846EB0601F9
:101800002D1846EB0101CB0043EA5573EA0015465B
:10181000194662683346921846EB0303281846EBD4
:101820000101FFF741FA244DA5FB00325109642361
:1018300003FB1103DB003233A5FB03235B095A00D2
:1018400002F4F87202EB011203F00703216813445B
:101850008B602EE0FFF78CFF0026051846EB060193
:101860002D1846EB0101CB0043EA5573EA001546FB
:10187000194662683346921846EB0303281846EB74
:101880000101FFF711FA0C4DA5FB00325109642349
:1018900003FB1103DB003233A5FB03235B095A0072
:1018A00002F4F87202EB011203F0070321681344FB
:1018B0008B6070BD001001401F85EB51704720B355
:1018C00010B5044690F83D30D3B1022384F83D3082
:1018D0002046FFF75DFF2268136923F480431361FC
:1018E0002268536923F02A0353612268D36843F4C2
:1018F0000053D36000202064012384F83D3010BDE4
:1019000080F83C30FFF7DAFFDFE701207047000086
:10191000074AD36823F4E0631B041B0C000200F4A5
:10192000E060034343F0BF6343F40033D360704788
:1019300000ED00E02DE9F84305460F4616469946AE
:10194000DDF820802C68246837EA04030CBF0124EA
:101950000024B4421FD1B8F1FF3FF3D0B8F1000F1B
:1019600005D000F0BBF8A0EB09004045EAD92A6891
:10197000D36823F4D073D3602A68536923F001033A
:101980005361202385F8393085F83A30002385F8F3
:101990003830032000E00020BDE8F8832DE9F04353
:1019A00083B01E4690F83930DBB2202B59D1044663
:1019B0000D469046002958D0002A58D090F838306B
:1019C000012B56D0012380F838304FF00009C0F8C1
:1019D0003C90212380F8393000F080F80746A4F8C5
:1019E0002480A4F8268084F8389017E000963B46BF
:1019F000002280212046FFF79DFF00283BD12B8845
:101A00002268C3F30803536023690BB9023505E06C
:101A1000013503E015F8012B23685A60E38C9BB273
:101A20009BB1E28C92B2013A92B2E284A368B3F520
:101A3000805FDBD000963B46002280212046FFF7E6
:101A400079FF0028E6D003200CE000963B460022F8
:101A500040212046FFF76EFF78B9202384F8393003
:101A600000E0022003B0BDE8F0830120FAE7012086
:101A7000F8E70220F6E70320F4E70320F2E700008E
:101A800008B50B4B1A6842F400721A601A6842F4E7
:101A900080621A601A6842F480721A600320FFF7AD
:101AA00037FF002000F006F8FFF724FB002008BDF8
:101AB000003C0240064A136843F080731360002024
:101AC000044B1860044A136843F001031360704725
:101AD000FCED00E0041000E0001000E0054B1B6886
:101AE0004FF47A7000FB03F0034BA3FB0030800E31
:101AF000704700BF041000E029D942660138B0F1F8
:101B0000807F0DD2074B186003F60F53FF221A7027
:101B10000020A3F60B531860083B07221A60704799
:101B20000120704714E000E00048704744020020A4
:101B30000048704744A2002010B5FFF7A1FFFFF74F
:101B400035FAFFF78BFA0C4B18680C4BA3FB0030EF
:101B50008009FFF7D3FF4FF4E13001F097FB00F06D
:101B60001DF8FFF7E1FF0446FFF7E2FF01462046BC
:101B700001F0B8F910BD00BF00000020D34D621085
:101B800008B501F0F9F800F0C7FF01F003F908BD4E
:101B900000207047002070470020704710B5044CAB
:101BA000044B9C4203D254F8043B9847F8E710BD1D
:101BB000C4650008C865000810B5044C044B9C427D
:101BC00003D254F8043B9847F8E710BDC8650008F5
:101BD000CC65000808B5FFF7EFFFFFF73DFA08BD39
:101BE00000B583B014230193552300934FF4806311
:101BF00000220449044800F0BDFA00F080FB03B065
:101C00005DF804FBD51B0008F85D000808B5FEF779
:101C1000DFFAFFF791FF00F037FF00F0CFF900F097
:101C200091FFFFF7DDFF00F0D7F901F007F900F0B1
:101C3000B5FF002008BD08B5FFF7E8FF002008BD8C
:101C400010B49DF8044024F001044472C1610262A2
:101C50000022826243621346002B01DD10BC7047F4
:101C60009A1C00EBC202111D916051600133F3E731
:101C70000368984201D0586970474FF0FF307047B1
:101C800070B582B0044615461E460A460A2100F089
:101C900067FB9DF81C300093069B32462946204680
:101CA000FFF7CEFF02B070BD70B50446FEF790FAA4
:101CB0000022002A06DDFEF78FFA204600F079FBAD
:101CC000002070BD931C04EBC303191D5E689D6862
:101CD00075605E682E60996059600132E9E7000026
:101CE00070B582B00446FEF773FA0022002A36DD92
:101CF000637A23F001036372FEF76EFA00F006FFC9
:101D0000636A1844A062FEF763FA637A13F0040F63
:101D100032D02C4E01960022002A34D02A4A136871
:101D200001331360019B04F1140219684A601968B9
:101D300061611A60A361637A43F001036372FEF785
:101D40004BFA637A13F0040F06D0204B93F834302B
:101D500003F00F03012B2FD1002002B070BD931CA4
:101D600004EBC303191D5E689D6875605E682E6094
:101D7000996059600132B9E7154ECBE702AB03EB2E
:101D8000820343F8041C02AB03EB820353F8041CE8
:101D9000D30006EBC2056D68A9420BD00968143365
:101DA000CB1A9B6AA56AAB42E8D05B1B6FF000457B
:101DB000AB42E3D20132AFE7044800F07DFA00F015
:101DC0000DFFC9E748A2002044A2002058A200202D
:101DD00050A20020437A13F0010F02D14FF0FF30E0
:101DE000704770B50446FEF7F3F90022002A07DDBC
:101DF000FEF7F2F9637A23F001036372002070BDED
:101E0000931C04EBC303191D5E689D6875605E68D2
:101E10002E60996059600132E8E7032905D8DFE8B0
:101E200001F00602090E436A136000207047136830
:101E30004362FAE7437A23F002034372F5E7437AF9
:101E400043F002034372F0E7F8B500F05FFE054689
:101E5000FEF7BEF90646214B1C689C4203D1304672
:101E6000FEF7BAF9F8BDA4F114076069281A6FF0FB
:101E700000439842F3D2002114E0A4F114028B1C19
:101E800002EBC302043204EBC30353F8105C53F8B3
:101E90000C0C686053F8105C056043F80C2C43F898
:101EA000102C01310029E8DDA368E068984700F0B4
:101EB0002DFE054614F80B3C03F00302032A04D060
:101EC00023F0010304F80B3CC5E723F0010304F8F9
:101ED0000B3C3846FFF704FFBDE700BF50A20020CF
:101EE000F8B500F013FE054600F01CFF234B1C68FC
:101EF000224B9C4202D100F021FFF8BDA4F114074F
:101F00006069281A6FF000439842F4D226680021D5
:101F1000002915DD00F012FFA368E068984700F083
:101F2000F5FD054600F0FEFE14F80B3C03F003023D
:101F3000032A1BD023F0010304F80B3C3446D7E7F7
:101F4000A4F114028B1C02EBC302043204EBC303A2
:101F500053F8105C53F80C0C686053F8105C056083
:101F600043F80C2C43F8102C0131D1E723F0010386
:101F700004F80B3C3846FFF7B3FEDFE748A2002029
:101F800010B509E0044600F0C1FD201A6FF00043CF
:101F900098420ED3FFF7A4FF0748FFF769FEB0F1A0
:101FA000FF3FEFD100F0E0F800F03AF900F016FE44
:101FB000F0E700F07DF9EDE748A20020002303B12F
:101FC0007047044901EBC302526041F833200133EA
:101FD000F5E700BF50A2002010B584B00023A3B1E4
:101FE0000E4C0A230393042302934FF400730193CE
:101FF0000B4B009300230B4A0B49204600F098F846
:10200000204600F07CF904B010BD084901EBC30282
:10201000526041F833200133E1E700BF58A20020AD
:10202000DCA20020811F0008005E000848A20020FA
:1020300038B5144B1C68FEF7CBF80546204600F077
:102040003FFE042384F8343004F15000FFF72CFEE7
:10205000204600F0FBF901280DD004F114020A4BD0
:1020600019684A6061611A60A3612846FEF7B4F8F6
:1020700000F0B4FD38BDE36F002BEED1204600F038
:1020800098F9F2E798AF0020A0AF0020F0B583B038
:10209000044617460898099A9DF828500B9E04F1AB
:1020A0001401A161616127626362A062E26223217F
:1020B00000F01AFBA16AE36A1A1F124B0A44616A14
:1020C000206A01F033F8E06184F8365084F8355026
:1020D0000025E56384F8375084F83850A664E66438
:1020E000256384F83450E567C4F880500195009565
:1020F0002346054A214604F15000FFF7C1FD28465A
:1021000003B0F0BD312000080D21000810B56FF0BC
:102110000102026300F1140244698169616044694B
:102120000C608261426100F09BFD00F057FD10BD24
:10213000F0B585B005460C4616461F460A460121F5
:1021400000F00EF90D9B03939DF8303002930B9B2A
:1021500001930A9B00933B46324621462846FFF7EF
:1021600095FF05B0F0BD0000014B1868704700BF37
:1021700098AF00202DE9F04385B004460F46904605
:102180001D460146012000F026F9064688B1284682
:1021900000F0E8FE814680B10D9B03939DF830303E
:1021A00002930195009043463A4621463046FFF798
:1021B0006DFF304605B0BDE8F083304600F031F9E0
:1021C0004E46F6E710B5FEF703F8134B1B6893F87D
:1021D000342002F00F02012A03D159699A69914211
:1021E00003D1FDF7F9FF002010BD03F114044A608C
:1021F000596911609C615C6193F83510074A02EBE4
:10220000C10251680C605168996154605A61FDF7D0
:10221000E3FF00F0E3FCE6E798AF002094A700207E
:1022200038B590F8343003F00F03012B17D1044672
:10223000FDF7CEFF054694F9343023F00F0343F049
:10224000020384F83430204600F03AFD04F15000D7
:10225000FFF7C0FD2846FDF7BFFF002038BD4FF057
:10226000FF30FBE770B582B00190FDF7B1FF054686
:102270000E4B1C682046FFF7D3FF04F1500601AA5D
:1022800000213046FFF7C9FD3046FFF729FD2846FB
:10229000FDF7A2FF00F0A2FC236B13F1020F02D0A6
:1022A000002002B070BD00232363F9E798AF00203F
:1022B00008B5FFF7D7FF08BD38B590F8343003F004
:1022C0000F03022B18D10446FDF782FF054604F1E7
:1022D00014036169A2694A6061691160A361636165
:1022E00004F15000FFF776FD2846FDF775FF204604
:1022F00000F0B6FC002038BD4FF0FF30FBE710B512
:1023000090F8362080F83520D40880F83740012135
:1023100001FA04F4C46302F0070201FA02F280F841
:102320003820022280F83420FFF7C6FFFFF71CFF99
:1023300008B100F053FC002010BD00000023042B66
:1023400009DC1A0105498A5C824201D00133F6E7B3
:1023500001EB031070470020704700BF0800002009
:102360002DE9F04106460F4690460846FFF7E6FF86
:10237000054600F0D7FC6B682C1D9C4201D01B6801
:10238000FAE700F0DBFC67F07F073772082241466E
:10239000304600F0D0F9FDF71BFF06F10C036A6828
:1023A00053606A68F2606B603461FDF715FFBDE849
:1023B000F08110B5044600230372FDF709FF04F114
:1023C0000C03E16822694A60E16811602361E360FF
:1023D000FDF702FF10BDF8B507460E46FFF7AEFF4A
:1023E0000446C06800F0BEFD0546C0B1E2680021A9
:1023F00000F07AF92F7200236B72082231462846CA
:1024000000F099F9FDF7E4FE221D05F10C03616867
:102410004B606168E96063602A61FDF7DDFE284674
:10242000F8BD10B5044600230372FDF7D1FE04F198
:102430000C03E16822694A60E16811602361E3608E
:10244000FDF7CAFE204600F01DFE10BD90F90830D1
:10245000002B01DB002070470120704770B5044657
:1024600016461D460A460221FFF77AFF04F11403BF
:10247000A3616361A6836572002070BD2DE9F04100
:1024800082B004460191FDF7A3FE0746A38BF3B982
:10249000019B13B3FFF768FE06460023036304F1B4
:1024A000140594F80980FFF7BBFEB8F1000F19D0AE
:1024B000B8F1010F1FD0019B002B3ADC3846FDF725
:1024C0008BFE00F08BFB306B02B0BDE8F081013B6E
:1024D000A383FDF781FE0020F6E7FDF77DFE6FF098
:1024E0000100F1E706F114036A6813606A68B261DB
:1024F0006B607561DFE763699D420FD096F8351018
:1025000093F82120914201D31B68F5E706F11402EC
:1025100059680A605968B1615A6073619D42CAD1B5
:1025200006F114036A6813606A68B2616B607561D2
:10253000C1E706F1500401AA00212046FFF76DFC17
:102540002046FFF7CDFBB9E738B50446FDF740FE5E
:10255000054604F114036069834209D01438FFF77B
:10256000ABFE01242846FDF737FE34B9002038BD04
:10257000A38B0133A3830024F4E700F02FFBF5E7DE
:102580002DE9F04385B00D9E0E9F17F0400F19D036
:10259000DFF84C9117F0100F01D027F0010717F06A
:1025A000010F12D04FF0300C17F0020F14D0002A98
:1025B0000EDB17F0040F26D117F0080F26D14FF0CD
:1025C000000E0BE0DFF81C91E4E74FF0200CEBE786
:1025D00052424FF02D0E01E04FF0000E8ABB302327
:1025E0008DF800300124B4422DDC32460C9B9B1A3E
:1025F00017F0110F33D1BEF1000F02D0002B00DD18
:10260000013B1D4623E04FF02B0EE7E74FF0200E75
:10261000E4E702F00F08120919F8088004AD254418
:1026200005F8108C0134002ADDD00A2BF1D12B4D96
:10263000A5FB0285ED0805EB8508A2EB48082A46B4
:10264000EAE70024EFE72246D0E701301D466B1E83
:10265000002D04DD8842F8D220250570F5E7BEF193
:10266000000F05D0884201D280F800E0013B013024
:1026700017F0100F02D00DE001302B465D1E002B2D
:1026800004DD8842F8D280F800C0F5E72B4601E06F
:1026900001302A46551EA24206DD8842F8D2302279
:1026A0000270F5E701301446621E002C0ADD4EB1BF
:1026B0008842F7D204AC144414F8104C0470F1E7CB
:1026C000013013465A1E002B04DD8842F8D2202325
:1026D0000370F5E705B0BDE8F08300BFCDCCCCCCEE
:1026E000985F0008AC5F000810B4032A1FD9CCB271
:1026F00010F0030F1DD144EA042444EA04440346C5
:102700000F2A09D91C605C609C60DC60103A1033B1
:10271000F6E743F8044B043A032AFAD802E003F838
:10272000011B2246541E002AF9D110BC70470346F3
:10273000F8E70346F6E78AB130B4144603460D784D
:1027400001311D7001331DB1013CF8D130BC70471F
:10275000013CFBD0002203F8012BF9E77047034648
:102760001A780AB10133FBE7181A70472DE9F04FC8
:1027700087B0824604911446059310EB010803D3F9
:10278000C34304934FF0FF38564601E0013601344D
:102790002378002B00F05181252B03D04645F5D23C
:1027A0003370F3E7002502E045F010051446621C83
:1027B00063782D2BF8D02B2B08D0202B09D0232B7E
:1027C0000AD0302B0BD145F00105EFE745F00405A9
:1027D000ECE745F00805E9E745F02005E6E7A3F159
:1027E0003001092910D92A2B1BD04FF0FF3713785D
:1027F0002E2B21D04FF0FF391178682945D06C2954
:1028000043D01446002141E000271378A3F13001A2
:102810000929ECD807EB8707013203EB4707303F64
:10282000F3E7A21C059B191D05911F68002FDEDA36
:102830007F4245F01005DAE7511C5378A3F13000D0
:10284000092818D92A2B19D00A464FF00009D3E7D6
:1028500009EB8909013103EB4903A3F130090B7836
:10286000A3F13002092AF3D90A46B9F1000FC3DAFD
:102870004FF00009C0E74FF00009F0E70232059B76
:10288000191D0591D3F80090EFE7541C2378252BF0
:1028900000F09080C0F0AF80782B00F2AC80582B15
:1028A000C0F0A980583B202B00F2A580DFE803F0A0
:1028B0009BA3A3A3A3A3A3A3A3A3A3119FA3A3A386
:1028C000A39FA3A3A3A3A3886CA3A330A3B2A3A392
:1028D000B40015F0100F09D0059B1A1D05921B7846
:1028E000464500D23370013609E00136013F002F22
:1028F000F2DD4645F9D220233370F6E70136013F79
:10290000002F7FF744AF4645F8D220233370F5E718
:10291000059B1A1D0592D3F800B0BBF1000F0DD036
:102920005846FFF71CFFB9F1000F02DD814500DAC0
:10293000484615F0100F06D0002312E0DFF818B15A
:10294000EEE701361F467B1EB84204DA4645F8D250
:1029500020223270F5E71F46EEE701360BF1010B3E
:102960000133834207DA4645F7D29BF800203270E4
:10297000F3E701361F467B1EB842BFF608AF464557
:10298000F7D220223270F4E7B7F1FF3F0ED0059B5B
:102990001A1D05921A680295CDF80490009710232D
:1029A00041463046FFF7ECFD0646F0E645F00105EE
:1029B0000827ECE7464501D2252333700136E6E6C9
:1029C00008236C292AD068292DD0059A111D05915C
:1029D00012680295CDF80490009741463046FFF703
:1029E000CFFD0646D3E645F040051023E9E745F064
:1029F00002050A23E5E7464501D225233370721C00
:102A0000237823B1424500D273700236BFE6013C01
:102A10001646BCE60A23D4E71023D2E7059A111D17
:102A200005911268D5E7059A111D059111688AB2C2
:102A300015F0020FCDD00AB2CBE7049B1BB146457F
:102A400006D200233370A6EB0A0007B0BDE8F08F72
:102A5000002308F8013CF6E7085E00080FB410B543
:102A600082B004AB53F8042B0193064C7F2120461F
:102A7000FFF77CFE204600F01DFC02B0BDE81040D0
:102A800004B07047DCA4002000B583B00948FFF70C
:102A9000E5FF0948FFF7E2FF084B009303230122FB
:102AA00019460748FFF7DAFF0648FFF7D7FF03B0DC
:102AB0005DF804FB105E00081C5E0008605E000804
:102AC000405E00086C5E0008E8B110F0FF020AD119
:102AD00010F47F4F0BD110F47F0F0ED1030E0A4A72
:102AE000D05C19307047084B985C01307047C0F3D8
:102AF0000723054AD05C09307047C0F30743024AF8
:102B0000D05C113070477047985E0008014B186820
:102B1000704700BF5CA5002008B5094A136801335F
:102B20001360FFF721FBC36C013BC36413B1FFF7D4
:102B30008BF908BD836CC364FFF744FBF7E700BF64
:102B40005CA5002008B500230D4A1380FF2B07DC8D
:102B50000C4901EBC302526041F833200133F5E721
:102B6000094BFF221A700021084B1960084B1960AD
:102B700020220848FFF7B8FD074B5B601B6008BDCB
:102B800060A5002094A7002094AF002098AF0020FB
:102B90009CAF002074A70020A0AF002010B50B4B05
:102BA0001868FFF791FF0138C400094B185CFFF764
:102BB0008BFF0444013C074B53F83400A0F114028E
:102BC000054B1A600830FDF738FB10BD9CAF0020A4
:102BD00074A7002094A7002098AF002038B5FDF717
:102BE000F7FA0446174BB3F90030FBB9164B1868D7
:102BF000FFF76AFF0138C500144B185CFFF764FF4C
:102C00002B18013B124A52F83310A1F1140211485B
:102C1000006890420AD0104D2B700E4B1A600F4B7B
:102C20001B783BB108311C30FDF7D9FA2046FDF77F
:102C3000D3FA38BD08311C30FDF7D1FA2046FDF734
:102C4000CBFAF6E760A500209CAF002074A7002017
:102C500094A7002098AF002094AF0020A8AF0020D8
:102C600038B50446FDF7B4FA94F9343023F00F0375
:102C700043F0010384F8343094F835200D4B03EB16
:102C8000C20304F1140259680A605968A1615A60CC
:102C9000636194F8372094F8383007498D5C2B43F2
:102CA0008B54E16B054A13680B431360FDF794FAEC
:102CB00038BD00BF94A7002074A700209CAF00205F
:102CC00038B50446FDF784FA04F114036169A2697A
:102CD0004A6061691160A361636194F835200E4B0D
:102CE00003EBC20153F83230994202D0FDF774FA77
:102CF00038BD94F8372094F8385008498B5C23EAA3
:102D000005038B54002BF1D1E16B054A136823EACC
:102D100001031360EAE700BF94A7002074A7002016
:102D20009CAF002008B5FDF753FA034A138801331E
:102D30001380FDF751FA08BD60A5002008B5FDF726
:102D400047FA0B4A1388013B1BB21380002B02DDAC
:102D5000FDF742FA08BD134600221A80FDF73CFA3F
:102D6000044B1B68002BF5D0FFF738FFF2E700BFDC
:102D700060A5002098AF002008B5FDF729FA044AA5
:102D800013780133DBB21370FDF726FA08BD00BFDC
:102D9000A8AF002008B5FDF71BFA044A1378013BE1
:102DA000DBB21370FDF718FA08BD00BFA8AF002012
:102DB0001F4B1A689A423AD070B513E02846FFF7C5
:102DC00045FB012827D0FFF7B9FF3046FDF704FA8D
:102DD000606900F057F92846FFF723FB144B1A6887
:102DE0009A4223D0FDF7F4F90646114B1A689A422D
:102DF0001AD01C68254655F8142963685360226868
:102E00001A6064602460FFF78DFFA36E002BD5D09D
:102E100028469847D2E72846FFF7CBFAFFF78EFF00
:102E20003046FDF7D9F901E0FDF7D6F970BD7047DE
:102E3000A0AF002008B5FFF7BBFFFCE710B584B0DA
:102E40000A4C20230393FF2302934FF480730193D2
:102E5000074B00930023074A07492046FFF768F90C
:102E60002046FFF74CFA04B010BD00BF64A5002057
:102E7000E8A50020352E0008C05F0008164B196831
:102E800042680A4490420FD053886BB9134B1B68B9
:102E9000934209D0124B1B68934216D0536843608B
:102EA00053680B44421A9A6083680B4498420BD0D3
:102EB0005A884AB90A4A1268824209D042685A605E
:102EC00042680A445B1A93607047054B1860E5E757
:102ED000034A1360F2E700BFECA60020E8A600203A
:102EE00010A7002070B50A4621F00303182B06D95D
:102EF000C41C24F00304A3F11801A14204D201462A
:102F00001148FFF7ABFD70BD1B1BA3F118010F4A61
:102F100011600F4D2C604FF4F5522280A3F10C018B
:102F200061600023A360638060180A4E30606252C3
:102F3000012242804160816007490848FFF78EFA0C
:102F40002A68074B1A60DEE7D05F000818A7002048
:102F5000ECA60020E8A60020C85F0008F0A600202C
:102F600010A7002000287AD0F8B50546033525F0D3
:102F700003053D4B1B689D4273D80B2D00D80C25D3
:102F80004FF0FF313948FFF779FA394B1E68394B5A
:102F90001868331A1DE001236380231AFB1A364A8E
:102FA00011680B441360354A1268934247D9334A7B
:102FB000136044E05B6803442D4A13602C4B1B688C
:102FC0005A88002A40D02E4A12689342F2D13BE040
:102FD0006368254A1268511B99423BD9C41861881D
:102FE0000029F5D16768F91A0C39A942F0D305F127
:102FF000180C6145CFD3E9180C3100EB010C4FF4EC
:10300000F55747520027ACF802706768CCF8047097
:10301000CCF80830616001236380DCF804300C32A6
:10302000934201D003449960134A13682B440C3334
:103030001360124A1268934201D9104A13604FF488
:10304000F5532380A642B9D00848FFF77DFA04F172
:103050000C0003E00548FFF777FA0020F8BD0020D8
:1030600070470020FAE700BF18A70020F0A6002054
:1030700010A70020ECA600201CA7002014A7002009
:10308000E8A60020002842D038B50446204B1B6833
:10309000834203D81F4B1B68834200D838BDA0F180
:1030A0000C054FF0FF311C48FFF7E8F934F80A3CF3
:1030B00023B134F80C3CB3F5F55F0AD01748FFF79D
:1030C000CDFC34F80C3C34F80A2C29461448FFF7A0
:1030D000C5FC002324F80A3C4FF4F55324F80C3CBB
:1030E000104B1B68AB4201D90E4B1D60084B1B688F
:1030F000EB1A54F8081C0C4A5B1A11680B44136055
:103100002846FFF7BBFE0448FFF71EFAC6E77047E4
:10311000ECA60020E8A60020F0A600200C60000825
:103120002860000810A700201CA7002070B40646E5
:10313000043222F00705A5F1400000220F2A04D82E
:103140000C4C40F822400132F8E745F8201C0022E0
:1031500045F81C2C45F8182C45F8142C45F8102C73
:1031600045F80C3C45F8086C4FF0807345F8043C7A
:1031700070BC7047EFBEADDE10B504462F4B1B6828
:103180001BB124309847002856D0216C2C48FFF7FB
:1031900065FC616A2B48FFF761FCA16A2A48FFF7CA
:1031A0005DFCE16A2948FFF759FC216B2848FFF7CD
:1031B00055FC61682748FFF751FCA1682648FFF7D6
:1031C0004DFCE1682548FFF749FC21692448FFF7D9
:1031D00045FC61692348FFF741FCA1692248FFF7DC
:1031E0003DFCE1692148FFF739FC216A2048FFF7DF
:1031F00035FC616B1F48FFF731FCA16B1E48FFF7E0
:103200002DFCE16B1D48FFF729FC236813F0040F28
:103210000AD0FEF7A9FF01461948FFF71FFC2368F3
:1032200013F0100F04D0FEE71648FFF717FCF6E77F
:103230001548FFF713FCF6E710BD00BF20A70020DC
:10324000586000086860000878600008886000081E
:1032500098600008A8600008B8600008C86000080E
:10326000D8600008E8600008F860000808610008FD
:1032700018610008286100083861000848610008EA
:1032800058610008786100089461000808B5074B90
:10329000074A1A6058600C225A6100221A619A602B
:1032A000DA601846FEF70BFB08BD00BF24A700201C
:1032B00000100140F0B583B005460D238DF80730AE
:1032C000FFF74DFA074600240DE001231A460DF1E1
:1032D00007010948FEF762FB01231A4631460648FA
:1032E000FEF75CFB0134BC4204D22E192B5D0A2B85
:1032F000F2D1EAE703B0F0BD24A70020DFF834D014
:10330000002103E00C4B5B58435004310B480C4B3D
:1033100042189A42F6D30B4A02E0002342F8043BDB
:10332000094B9A42F9D3FDF739FE00F011F8FEF788
:1033300082FC704700000220E065000800000020C9
:103340002802002028020020C8AF0020FEE700006D
:1033500070B50D4D0D4C641BA4100026A64209D17A
:103360000B4D0C4C02F02EFD641BA4100026A6424F
:1033700005D170BD55F8043B98470136EEE755F886
:10338000043B98470136F2E7D8650008D865000885
:10339000D8650008DC65000802440346934200D16A
:1033A000704703F8011BF9E72DE9F04788B0002BBF
:1033B0001F461446B8BF03F10043129A109DDDF872
:1033C0004CA0B6BF1F4600232D231370149B23F07F
:1033D0002008B8F1460F05D0B8F1450F00D10135EE
:1033E000022300E0032307AA049206AACDE902A261
:1033F000CDE9003522463B4600F0BEFCB8F1470F50
:10340000064602D1119BDB0722D5B8F1460F06EB29
:10341000050910D13378302B0AD100220023204631
:103420003946FDF7D1FB18B9C5F10105CAF80050BE
:10343000DAF8003099440022002320463946FDF78F
:10344000C3FB08B1CDF81C903022079B4B4507D336
:10345000079B159A9B1B3046136008B0BDE8F087A8
:10346000591C07911A70F0E7F7B503460029B8BF59
:10347000494203F8022BB4BF2D222B2209294270A6
:103480002ADD0DF10704A4460A27A6460A4691FB49
:10349000F7F607FB16153035632A04F1FF340EF8F2
:1034A000015C3146F1DC3031AEF1020504F8011C5B
:1034B000441C294661450AD30DF10902A2EB0E0214
:1034C000654588BF00221344181A03B0F0BD11F8F7
:1034D000012B04F8012FEDE7302330318370C170E8
:1034E000031DF1E72DE9F04F91B00C46DDF868803F
:1034F00016461F46054601F02DFA03680993184643
:10350000FCF7E2FE00230E93D8F800300A90073350
:1035100023F0070303F1080294F81890D4F800B0E0
:10352000C8F80020D3E90023C4E91223D4E9128AA1
:103530002AF000430B930B999C4B4FF0FF3240460F
:10354000FDF774FB70BB994B0B994FF0FF3240466F
:10355000FDF74EFB30BB0022002340465146FDF7ED
:103560003DFB10B12D2384F84330914B9148B9F1C4
:10357000470F94BF98468046032323612BF0040332
:1035800023604FF0000A009733460FAA21462846D1
:1035900000F0D2F9013040F08F804FF0FF3011B0D1
:1035A000BDE8F08F4246534640465146FDF73EFB8C
:1035B00040B1BAF1000FBCBF2D2384F843307E48E0
:1035C0007E4BD4E763685A1C09F0DF0142D1062321
:1035D0006360002206920EAACDE904920DAA4BF474
:1035E000806303920DF13302CDE9013223606368F9
:1035F00000934246534628460B91FFF7D5FE0B99A0
:10360000472980460D9908D1C81C02DB636899429E
:1036100040DDA9F102095FFA89F9B9F1650F1FD8F8
:1036200001394A4604F150000D91FFF71DFF0E9A33
:103630001318012A8246236102DC2268D20701D5D1
:10364000013323619DF83330002B9CD02D2384F867
:10365000433098E74729BCD1002BBAD10123B7E703
:10366000B9F1660F18D1002963680BDD216113B928
:103670002268D00702D501330B442361A1654FF0C6
:10368000000ADFE713B92268D20701D50233F4E755
:103690000123F2E74FF067090E9B994205DB23688F
:1036A0002161D807EAD54B1CE7E70029D4BFC1F157
:1036B000020201221344E0E723685A0507D4236974
:1036C000424631462846B84701302BD165E7B9F16B
:1036D000650F40F2DC80D4E9120100220023FDF7DF
:1036E00073FA002833D0364A012331462846B847BA
:1036F00001303FF452AFDDE90D239A4202DB23682B
:10370000D8070FD5DDE9092331462846B8470130EF
:103710003FF443AF4FF0000804F11A090E9B013B40
:10372000434509DC23689B0700F10181E0680F9B9A
:103730009842B8BF184632E701234A463146284628
:10374000B84701303FF429AF08F10108E6E70D9BC7
:10375000002B37DC1A4A012331462846B84701308E
:103760003FF41BAFDDE90D23134302D12368D907D2
:10377000D8D5DDE9092331462846B84701303FF462
:103780000CAF4FF0000904F11A0A0D9B5B424B4548
:1037900001DC0E9B94E70123524631462846B84788
:1037A00001303FF4FAAE09F10109EEE7FFFFEF7FC8
:1037B000A8610008AC610008B4610008B0610008AD
:1037C000B86100080E9AA36D9A42A8BF1A46002A53
:1037D000914637DC4FF0000B29EAE97904F11A022F
:1037E000D4F858A0AAEB09035B4533DCDDE90D23CF
:1037F0009A423BDB2368DA0738D40E9A0D99A2EB84
:103800000A03A2EB01099945A8BF9946B9F1000F37
:1038100034DC4FF0000829EAE97904F11A0ADDE9FD
:103820000D239B1AA3EB090343457FF77BAF0123CD
:10383000524631462846B84701303FF4AEAE08F153
:103840000108ECE71346314642462846B8470130A6
:10385000C0D1A2E60123314628460B92B847013079
:103860003FF49BAE0B9A0BF1010BB9E7DDE909239D
:1038700031462846B8470130BFD18EE64B4608EBAB
:103880000A0231462846B8470130C2D185E60E9A71
:10389000012A01DCDB0737D50123424631462846A1
:1038A000B84701303FF479AEDDE9092331462846B7
:1038B000B84701303FF471AED4E912010022002371
:1038C000FDF782F9D8B90E9B08F10102013B3146A0
:1038D0002846B84701300ED15FE601234A463146FB
:1038E0002846B84701303FF458AE08F101080E9B56
:1038F000013B4345F1DC534604F15002E1E64FF051
:10390000000804F11A09F2E701234246DFE7012328
:103910004A4631462846B84701303FF43EAE08F1EA
:103920000108E3680F995B1A4345F0DCFEE64FF0AF
:10393000000804F11909F4E72DE9F0471646994605
:103940008A680B69DDF820809342B8BF1346336064
:1039500091F8432007460C460AB1013333602368CF
:10396000990642BF336802333360256815F00605B7
:1039700006D104F1190AE36832689B1AAB4226DCCF
:1039800094F84320131E226818BF012392062BD4FB
:1039900004F1430249463846C04701301ED023682F
:1039A000E568326803F00603042B08BFAD1AA3686C
:1039B00022690CBF25EAE57500259342C4BF9B1A16
:1039C000ED1800261A34B5421AD1002008E0012370
:1039D000524649463846C047013003D14FF0FF30C8
:1039E000BDE8F0870135C6E7E1185A1C302081F8A0
:1039F0004300224494F8451082F843100233C7E78D
:103A00000123224649463846C0470130E6D00136F8
:103A1000D9E700002DE9FF470C469146277E0C9917
:103A2000782F80469A4604F1430207D8622F0AD8BD
:103A3000002F00F0D880582F00F0A38004F1420638
:103A400084F842703AE0A7F16303152BF6D801A081
:103A500050F823F0AD3A0008C13A00083D3A00089A
:103A60003D3A00083D3A00083D3A0008C13A0008D6
:103A70003D3A00083D3A00083D3A00083D3A00084A
:103A8000CD3B0008F13A0008AF3B00083D3A000882
:103A90003D3A0008EF3B00083D3A0008F13A0008C3
:103AA0003D3A00083D3A0008B73B00080B681A1D74
:103AB0001B680A6004F1420684F842300123A3E047
:103AC000256808682E0600F104030AD505680B6016
:103AD000002D03DA2D236D4284F843305E480A231B
:103AE00019E015F0400F05680B6018BF2DB2EFE725
:103AF0000B682568181D0860280601D51D6802E0BE
:103B00006906FBD51D8854486F2F0CBF08230A2374
:103B1000002184F843106668A660002EA2BF2168C9
:103B200021F0040121600DB9002E4DD01646B5FBE1
:103B3000F3F103FB1157C75D06F8017D2F46BB4229
:103B40000D46F4D9082B0BD12368DF0708D523696C
:103B500061689942DEBF302306F8013C06F1FF366A
:103B6000921B2261CDF800A04B4603AA2146404695
:103B7000FFF7E2FE01304CD14FF0FF3004B0BDE85A
:103B8000F087354884F8457023680E681F0656F89C
:103B9000045B0E6014D5D90744BF43F020032360B3
:103BA0001DB9236823F0200323601023B0E72368A6
:103BB00043F0200323607823284884F84530E3E766
:103BC0005E0648BFADB2E6E71646BBE70B6826685F
:103BD00060691D1D0D6035061B6801D5186002E087
:103BE0007106FBD51880002323611646BAE70B68DF
:103BF0001A1D0A601E68626800213046FCF770FBDF
:103C000008B1801B606063682361002384F843303F
:103C1000A8E72369324649464046D0470130ABD039
:103C200023689B0713D4E068039B9842B8BF1846EB
:103C3000A4E70123324649464046D04701309BD095
:103C40000135E36803995B1AAB42F2DCEBE7002530
:103C500004F11906F5E700BFBA610008CB6100085E
:103C60002DE9F74F03690C69A3420746C0F2818032
:103C7000013C01F1140800F1140505EB84030193E4
:103C800058F8243055F8242001339A424FEA840B27
:103C900008EB8409B2FBF3F631D34FF0000E404637
:103CA000AC46F24650F8042B93B206FB03E34FEA0E
:103CB000134E9BB2AAEB0303120CDCF800A006FB28
:103CC00002E213FA8AF34FEA124E1FFA82FADCF884
:103CD0000020CAEB124202EB23429BB243EA0243AA
:103CE00081454CF8043B4FEA224ADBD255F80B30B1
:103CF0002BB9019B043B9D421A462ED33C613846AA
:103D000001F0BEF8002824DB013628464FF0000CF5
:103D100058F8042BD0F800E093B2ACEB0303120C7C
:103D200013FA8EF3C2EB1E4202EB23429BB243EA2C
:103D30000243C14540F8043B4FEA224CE8D255F813
:103D4000242005EB840322B9043B9D421A460AD382
:103D50003C61304603B0BDE8F08F1268043B002A96
:103D6000CCD1013CC7E71268043B002AF0D1013CEA
:103D7000EBE70020EEE700002DE9F04F446A99B030
:103D800016461F46CDE90467DDF89480054674B9F0
:103D9000102000F0E3FD0246686220B9A84BEA213A
:103DA000A84801F035FAC0E901440460C4606B6AB8
:103DB000196851B15A684A60012393408B602846C4
:103DC00000F022FE6B6A00221A603B1EB9BF23F08E
:103DD000004305930023C8F80030DDF814909A4B97
:103DE000BCBF0122C8F8002033EA090319D1249A84
:103DF00042F20F731360C9F31303334300F081855C
:103E0000269B53B9914B22E0914B08930833269A95
:103E10001360089819B0BDE8F08F8C4B08930333FA
:103E2000F5E7DDE90434CDE90C34DDE90C010022CD
:103E30000023FCF7C9FE804658B1249A0123136081
:103E4000269B002B00F05A8582481860431E089379
:103E5000DFE716AB019317AB00932846DDE90C238F
:103E600001F0B4F8C9F30A548246002C7ED00D9BB1
:103E7000CDF84C80C3F31303DDE90C0143F07F510F
:103E800041F44011A4F2FF34734B0022FCF77CFA9A
:103E900065A3D3E90023FCF72FFC65A3D3E9002336
:103EA000FCF774FA064620460F46FCF7BBFB62A3FC
:103EB000D3E90023FCF720FC02460B463046394686
:103EC000FCF764FA06460F46FCF7C6FE0022814660
:103ED000002330463946FCF781FE48B14846FCF7DE
:103EE000A1FB32463B46FCF76FFE08B909F1FF39EA
:103EF000B9F1160F57D8594B03EBC903D3E9002387
:103F0000DDE90C01FCF76AFE00284ED009F1FF390B
:103F100000230F93169B1C1B631E099345BFC4F11E
:103F200001030693002300234CBF09930693B9F1C4
:103F3000000F3CDB099BCDF838904B4409930023DC
:103F40000A93229B092B00F28D80052BC4BF043BF2
:103F50002293229BA3F10203CCBF00240124032B54
:103F600000F28C80DFE803F02D4F4D5BDDE9164356
:103F70001C4404F23243202BC3BFC3F1400304F2BC
:103F8000124009FA03F3C3F12003C6BF26FA00F07A
:103F9000184306FA03F0FCF735FB0123A1F1F87191
:103FA000013C139370E70123B3E70F90B2E7069B40
:103FB000A3EB09030693C9F100030A9300230E93B0
:103FC000BFE700230B93239B002B5ADC4FF0010B20
:103FD000CDF808B05B46CDF88CB0686A002242602C
:103FE000042202F114069E42416850D9284600F08E
:103FF000CBFC089000284ED1194B02464FF4D571E6
:10400000CEE60123DEE700230B93239B09EB030B92
:104010000BF10103012B0293B8BF0123DDE701235C
:10402000F2E700BFAFF3008061436F63A787D23F21
:10403000B3C8608B288AC63FFB799F501344D33F97
:10404000E9610008006200080000F07FE5610008F7
:10405000DC610008B96100080000F83F386300081F
:104060007C6200080124002322930B944FF0FF3B55
:104070000022CDF808B012232392AEE701230B9360
:10408000F4E7DDF88CB0CDF808B05B46A5E7013168
:1040900041605200A5E76B6A089A1A60029B0E2BDA
:1040A00000F2A880002C00F0A580B9F1000F34DDEB
:1040B0009A4A09F00F0302EBC303D3E9003419F461
:1040C000807FCDE910344FEA291416D0944BDDE9F6
:1040D0000C01D3E90823FCF739FCCDE9040104F015
:1040E0000F0403278E4E54B9DDE91023DDE90401E6
:1040F000FCF72CFCCDE9040129E00227F2E7E107F7
:1041000008D5DDE91001D6E90023FCF7F5FACDE981
:104110001001013764100836E5E700F0A580C9F109
:1041200000047E4B7E4E04F00F0203EBC203D3E982
:104130000023DDE90C01FCF7DFFACDE904012411CD
:1041400000230227002C40F08480002BD2D10F9B4B
:10415000002B00F08B80DDE90434CDE91034DDE97B
:104160001001704B0022FCF739FD00287ED0029B25
:10417000002B7BD0BBF1000F38DDDDE910016A4B6D
:104180000022FCF7B9FACDE9040109F1FF38013743
:104190005C463846FCF746FADDE90423FCF7ACFA46
:1041A000624B0022FCF7F2F8A1F15076CDE9100144
:1041B0001196002C5DD1DDE904015D4B0022FCF776
:1041C000E3F802460B46CDE90423109A3346FCF788
:1041D00023FD002840F09E82DDE90401109A06F1DB
:1041E0000043FCF7FBFC002840F09282DDE90C3430
:1041F000CDE90434179B002BC0F25381B9F10E0FA7
:1042000000F34F81454B03EBC903D3E90034CDE9FB
:104210000634239B002B80F2DB80029B002B00F3F3
:10422000D78040F07482424B0022DDE90601FCF7A2
:1042300063FADDE90423FCF7E5FC029C264600282E
:1042400040F04A82089F312307F8013B09F1010938
:1042500046E2E20705D5D6E90023FCF74DFA01371F
:104260000123641008366DE7022770E7029CC846F8
:104270008FE70899294B214412910B9903EBC40352
:10428000DDE9106753E90223002955D029490020B0
:10429000FCF75CFB3B463246FCF776F8CDE91001B3
:1042A000089FDDE90401FCF7D7FC0446FCF7BAF9E6
:1042B00002460B46DDE90401FCF766F8303402469D
:1042C0000B46CDE9042307F8014BDDE91023FCF789
:1042D00085FC002874D1DDE9042312490020FCF795
:1042E00053F8DDE91023FCF779FC002840F0B68094
:1042F000129B9F423FF47AAFDDE910010A4B002286
:10430000FCF7FAF9084BCDE910010022DDE90401C0
:10431000FCF7F2F9CDE90401C3E700BF38630008F8
:10432000106300080000F03F0000244000001C4023
:10433000000014400000E03F30463946FCF7DCF94D
:10434000CDE91001129B089C1493DDE90401FCF7F0
:1043500083FC1590FCF766F902460B46DDE9040183
:10436000FCF712F8159B303304F8013B129B9C427A
:1043700006460F464FF0000224D1B24BDDE9100192
:10438000FCF704F802460B4630463946FCF744FC7D
:10439000002862D1DDE91023AA490020FBF7F4FFD1
:1043A00002460B4630463946FCF718FC00283FF41D
:1043B0001DAF149F7B1E149317F8013C302BF8D0CF
:1043C000C1463AE0A04BFCF797F9CDE90401BCE700
:1043D000089FDDE90623DDE90401FCF7B7FAFCF7E5
:1043E0003BFC0446FCF71EF9DDE90623FCF784F9E3
:1043F00004F130060B460246DDE90401FBF7C4FF79
:1044000007F8016B089E029BBE1BB3423AD10246DD
:104410000B46FBF7BBFF02460B46CDE90223DDE965
:104420000623FCF7F9FB58BBDDE90623DDE90201B1
:10443000FCF7CAFB08B1E10722D42846514600F038
:10444000E3FA00233B70249B09F101001860269BCE
:10445000002B3FF4DEAC1F60DBE427463B461F46E3
:1044600013F8012D392A07D1089A9A42F7D10899F1
:10447000302208F101080A701A7801321A709FE799
:10448000C846EBE7704B0022FCF736F902460B46B4
:10449000CDE9042300220023FCF796FB002898D0E6
:1044A000CBE70B9A002A00F0D180229A012A00F370
:1044B000AF80139A002A00F0A78003F233430A9CCE
:1044C000069F069A1A440692099A01211A44284620
:1044D000099200F053FB0646002F0CDD099B002BD0
:1044E00009DDBB42069AA8BF3B46D21A0692099A3A
:1044F000FF1AD31A09930A9BF3B10B9B002B00F010
:10450000A980002C10DD31462246284600F0F2FB3F
:10451000524601460646284600F046FB5146804674
:10452000284600F071FAC2460A9B1A1B04D0514675
:10453000284600F0DFFB82460121284600F01EFBE2
:104540000E9B002B044640F387801A4601462846FE
:1045500000F0D0FB229B012B044640F380804FF0FB
:104560000008236904EB8303186900F0B9FAC0F16D
:104570002000099B184410F01F0000F09280C0F149
:104580002003042B40F38A80C0F11C00069B0344E7
:104590000693099B034407440993069B002B05DD02
:1045A00051461A46284600F0FFFB8246099B002B25
:1045B00005DD21461A46284600F0F6FB04460F9B0F
:1045C000002B70D02146504600F05AFC00286ADAD1
:1045D000002351460A22284600F038FA0B9B09F1C5
:1045E000FF398246002B00F09381314600230A22D6
:1045F000284600F02BFABBF1000F064600F393802B
:10460000229B022B57DC8EE0169BC3F1360356E744
:10461000029B5C1E0A9BA342BFBF0A9B0A94E21A3C
:104620000E9BB6BF9B181C1B0E93029BB8BF0024A9
:10463000002BB9BF069B029A069F029BBCBF9F1A24
:1046400000233EE70000E03F000024400A9C069F54
:104650000B9E41E70A9A6AE7229B012B19DC049B17
:10466000BBB9059BC3F313039BB9059B23F0004320
:104670001B0D1B0583B1069B01330693099B013378
:1046800009934FF001080E9B002B7FF46AAF0120C5
:104690006FE74FF00008F6E79846F4E73FF47DAF88
:1046A00018461C3072E7029B002B36DC229B022B43
:1046B00033DDDDF808B0BBF1000F0DD121465B46BC
:1046C0000522284600F0C2F901460446504600F093
:1046D000D7FB00283FF7B6AD239B089F6FEA03097D
:1046E0004FF000082146284600F08EF9002E3FF4D6
:1046F000A4AEB8F1000F05D0B04503D0414628461E
:1047000000F082F93146284600F07EF995E6002453
:104710002646E1E7C146264694E50B9BDDF808B046
:10472000002B00F0FC80002F05DD31463A4628467C
:1047300000F03AFB0646B8F1000F5CD071682846DD
:1047400000F022F9074628B97F4B024640F2EA21E1
:10475000FFF726BB32690232920006F10C010C30E1
:1047600000F004F901223946284600F01DFB089BA1
:1047700001330293089B5B440A93049B03F00103FB
:10478000B04609930646029B2146504603F1FF3B83
:10479000FFF766FA034630330490414650460B93C8
:1047A00000F06EFB324606902146284600F084FB5E
:1047B000C2680B9B074602BB0146504600F060FBF7
:1047C0000B9B024639462846CDE90B3200F01CF916
:1047D000229B0C9A029F43EA0201099B0B430B9B0D
:1047E0000DD1392B27D0069A002A01DD049B3133E5
:1047F0008BF8003076E73046B9E70122E2E7069908
:10480000002904DB229801430998014320D1002AA2
:10481000EEDD514601222846029300F0C5FA2146FA
:10482000824600F02DFB0028029B02DCE0D1DA0773
:10483000DED5392BDAD139238BF800303B461F46C1
:10484000013B17F8012C392A50D001321A7049E780
:10485000002A03DD392BEED00133C9E7029A0A9909
:1048600002F8013C8A422AD0514600230A222846F7
:1048700000F0ECF8B04582464FF000034FF00A021A
:104880004146284607D100F0E1F880460646029BE3
:104890000133029377E700F0D9F8314680460023D0
:1048A0000A22284600F0D2F80646F0E7BBF1000FD6
:1048B000089ACCBF5F46012717444FF000085146C5
:1048C00001222846029300F06FFA2146824600F04A
:1048D000D7FA0028B2DC02D1029BDB07AED43B46FC
:1048E0001F4613F8012D302AFAD0FBE6089A9A42A7
:1048F000A5D1312309F101091370F3E6134BFFF73A
:10490000A6BA269B002B7FF47FAA114BFFF79FBA14
:10491000BBF1000F03DC229B022B3FF7CCAE089FBC
:1049200021465046FFF79CF900F1300307F8013BA0
:10493000089ABA1A9345B9DD514600230A2228463F
:1049400000F084F88246EBE77C620008B86100085A
:10495000DC61000800487047AC010020024B0146B2
:10496000186800F0EBBB00BF580000200A449142D9
:1049700000F1FF3300D1704710B511F8014B03F877
:10498000014F9142F9D110BD70B5466A04460D46FB
:1049900076B91020FFF7E2FF0246606220B9184B9B
:1049A0001848662100F034FCC0E901660660C66064
:1049B000666AF36883B1636ADB6853F82500B8B9A7
:1049C000012101FA05F6721D9200204600F05AFB03
:1049D00060B1C0E901560EE021220421204600F01A
:1049E00051FB636AF060DB68002BE4D1002070BDEE
:1049F000026843F825200023C0E90333F7E700BF2E
:104A0000E96100088D62000870B5466A05460C46EB
:104A100076B91020FFF7A2FF0246686220B9094B61
:104A200009488A2100F0F4FBC0E901660660C6600F
:104A30003CB16B6A6268DB6853F82210216043F86E
:104A4000224070BDE96100088D6200082DE9F04147
:104A50000E69074698460C4601F1140000230568CC
:104A6000A9B202FB01814FEA114C2D0C02FB05C5D6
:104A700089B2013301EB05419E4240F8041B4FEA25
:104A80001548ECDCB8F1000F22D0A368B34219DC62
:104A9000616838460131FFF777FF054628B90246BD
:104AA0000D4B0E48B52100F0B3FB2269023204F130
:104AB0000C0192000C30FFF759FF21463846FFF7F2
:104AC000A3FF2C4604EB86030136C3F8148026614D
:104AD0002046BDE8F08100BF7C6200088D620008BE
:104AE000020C12040346CAB90304102013F07F4FCE
:104AF00004BF1B02083013F0704F04BF1B010430C9
:104B000013F0404F04BF9B000230002B05DB13F075
:104B1000804F00F1010008BF202070470020E5E72A
:104B20000368024613F007000BD0D90722D4980778
:104B300049BF5B089B08012013605CBF1360022023
:104B4000704799B209B91B0C102013F0FF0F04BF76
:104B50001B0A0830190704BF1B090430990704BF5A
:104B60009B080230D90703D45B0800F1010003D091
:104B700013607047002070472020704710B50C4626
:104B80000121FFF701FF024628B9054B05484FF404
:104B9000A07100F03DFB01234461036110BD00BF23
:104BA0007C6200088D6200082DE9F04F14460A6906
:104BB00023699A42B8BF0B460D46BCBF25461C462A
:104BC000D5F810A0D4F81090AB6869680AEB090713
:104BD000BB4285B0B8BF0131FFF7D6FE30B90246FF
:104BE000424B434840F25D1100F012FB00F1140605
:104BF00006EB87083346002243451ED305F1140C0B
:104C000004F114030CEB8A0C03EB89020292ACEB67
:104C10000502153A22F00302043205F115018C4514
:104C200038BF04220192029A03939A4208D8002FB7
:104C300055DC076105B0BDE8F08F43F8042BDBE7D6
:104C4000B3F800A0BAF1000F20D005F1140EB14660
:104C500000225EF8044BD9F800B0A1B21FFA8BFB1A
:104C60000AFB01B11144D9F80020240C120C0AFBF4
:104C7000042404EB114489B241EA0441F44549F8A3
:104C8000041B4FEA1442E4D801997250039AB2F817
:104C900002900433B9F1000F1FD0346805F11401FC
:104CA000B6464FF0000A0A88BEF802B009FB02B20D
:104CB0009244A4B244EA0A444EF8044B51F8044B1F
:104CC000BEF80020240C09FB042404EB1A448C4594
:104CD0004FEA144AE7D8019AB4500436A3E758F8CB
:104CE000043D002BA5D1013FA1E700BF7C62000875
:104CF0008D6200082DE9F843154612F003020646BE
:104D00000F4607D0254C013A002354F82220FFF724
:104D10009DFE0746AD103DD0746A7CB91020FFF7A8
:104D20001DFE0246706228B91D4B1E484FF4D77114
:104D300000F06EFAC0E901440460C460D6F8248033
:104D4000D8F808404CB940F271213046FFF716FF01
:104D50000023C8F80800044603604FF00009EB0781
:104D60000AD5394622463046FFF71EFF39468046AF
:104D70003046FFF749FE47466D100BD0206838B922
:104D8000224621463046FFF70FFF2060C0F8009012
:104D90000446E4E73846BDE8F88300BF0064000835
:104DA000E96100088D6200082DE9F0470C4649686A
:104DB000236903EB6218A368074691464FEA621A1B
:104DC00008F10106B3420BDB3846FFF7DDFD05466F
:104DD00048B90246284B294840F2D91100F018FA88
:104DE00001315B00EEE7002300F1140100F1100235
:104DF0001846534533DB20692AEAEA7A04F11403A2
:104E000019F01F0901EB8A0103EB800C2BD0C9F1CB
:104E1000200E8A460022186800FA09F002434AF878
:104E2000042B53F8042B9C4522FA0EF2F3D8ACEB7A
:104E30000403153B23F00303043304F115008445F8
:104E400038BF0423CA500AB108F10206013E3846B1
:104E50002E612146FFF7D8FD2846BDE8F08742F8CD
:104E6000040F0133C5E7043953F8042B41F8042F2C
:104E70009C45F9D8EAE700BF7C6200088D62000813
:104E80000A6903460069801A30B50DD11433143114
:104E900003EB820401EB820154F8045D51F8042D08
:104EA000954202D004D3012030BDA342F4D3FBE7E6
:104EB0004FF0FF30F8E700002DE9F84F0C460646AA
:104EC000114620461746FFF7DBFF051E11D1294684
:104ED0003046FFF759FD024628B93A4B40F23221DD
:104EE000394800F095F90123C0E904351046BDE8C2
:104EF000F88FA4BF3B46274630467968A6BF1C46BC
:104F000000250125FFF740FD024618B92D4B4FF44F
:104F10001071E5E73E69C560256907F1140100F1EC
:104F2000140E04F1140907F1100001EB860C09EBD3
:104F30008505F246002759F8043B50F804BF1FFAD4
:104F400083F817FA8BF71B0CA7EB0808C3EB1B437E
:104F500003EB28431FFA88F81F144D4548EA034322
:104F60004AF8043BE7D82B1B153B23F0030304331B
:104F70001534A54238BF0423194473449E460D4698
:104F800065450ED30CF10300401A20F003000339ED
:104F90008C4538BF0020184450F8043D7BB11661A1
:104FA000A4E755F8048B17FA88F4201400EB184096
:104FB000A4B244EA00444EF8044B0714E0E7013E73
:104FC000EAE700BF7C6200088D6200082DE9F3412A
:104FD0000121DDE9087690461D46FFF7D5FC044621
:104FE00030B90246254B264840F20A3100F010F94C
:104FF000C5F31303C5F30A552DBB0193B8F10003A4
:1050000026D068460093FFF78BFD0099F0B1019A16
:10501000C0F1200302FA03F30B43C2406361019223
:10502000019BA361002B14BF022101212161C5B1A5
:10503000A5F233450544C0F135003D60306020469F
:1050400002B0BDE8F08143F48013D6E76161E7E781
:1050500001A8FFF765FD019B6361012121612030FB
:10506000E5E704EB8103A0F2324038601869FFF7EE
:1050700037FDC0EB41113160E1E700BF7C62000801
:105080008D62000838B502FB01F5294600F056F89C
:10509000044618B12A460021FEF77EF9204638BDA5
:1050A00038B50546002945D051F8043C0C1F002BAB
:1050B000B8BFE41800F0EEF81F4A1368104633B981
:1050C000636014602846BDE8384000F0E9B8A342A8
:1050D0000BD921686218934204BF1A685B68636049
:1050E00004BF521822600460ECE71A465B680BB1FB
:1050F000A342FAD911685018A0420BD1206801448C
:10510000501883421160DDD118685B685360014418
:105110001160D7E702D90C232B60D3E72068211850
:105120008B4204BF19685B68636004BF0918216083
:105130005460C7E738BD00BF68A70020F8B5CD1C94
:1051400025F0030508350C2D38BF0C25002D06462B
:1051500001DBA94203D90C2333600020F8BD00F025
:1051600099F821490A6814469CB9204F3B6823B935
:105170002146304600F03CF838602946304600F0C1
:1051800037F8431C23D10C233360304600F088F8F5
:10519000E3E723685B1B17D40B2B03D923601C4464
:1051A000256004E06368A2420CBF0B605360304688
:1051B00000F076F804F10B00231D20F00700C21A5E
:1051C000CCD01B1AA350C9E722466468CCE7C41CA4
:1051D00024F00304A042E3D0211A304600F008F87E
:1051E0000130DDD1CFE700BF68A700206CA7002009
:1051F00038B5064D0023044608462B6000F0CAFD72
:10520000431C02D12B6803B1236038BDB8AF002026
:105210001FB514461A46094B1B680546D8684CB1A1
:10522000074B0091CDE9013406492B4600F00EF8FA
:1052300000F062FA044B1C46F3E700BF5800002060
:105240000C64000819640008476400080EB403B534
:10525000014603AB054853F8042B0068019300F0A6
:105260004DF802B05DF804EB03B070475800002021
:1052700082B001B901A942B14BB113780B60127829
:10528000101E18BF012002B070471046FBE76FF0F8
:105290000100F8E7014800F0EFBB00BFC0AF0020FD
:1052A000014800F0EABB00BFC0AF00209368013B9B
:1052B000002B10B4936007DA9469A34201DB0A293A
:1052C00002D110BC00F04AB91368581C1060197064
:1052D000084610BC7047F8B506460F461446D51868
:1052E000AC4201D1002007E014F8011B3A463046D9
:1052F000FFF7DCFF431CF3D1F8BD00002DE9F04FB0
:105300000D469DB014469846064618B183690BB900
:1053100000F014FB894B9D421BD175686B6ED90759
:1053200005D4AB899A0502D4A86D00F0A5FBAB8922
:105330001B0701D52B69EBB92946304600F06EF901
:10534000C0B16B6EDC070ED54FF0FF301DB0BDE86D
:10535000F08F7B4B9D4201D1B568DFE7794B9D42D1
:1053600008BFF568DAE7AB899805EDD4A86D00F0C1
:1053700084FBE9E70023099320238DF82930CDF839
:105380000C803023DFF8C0818DF82A304FF00109FE
:1053900023469A4613F8012B0AB1252AF9D1BAEB14
:1053A000040B0BD05B46224629463046FFF793FF9D
:1053B000013000F0AA80099A5A4409929AF8003004
:1053C000002B00F0A28000234FF0FF32CDE905232F
:1053D0000AF1010A049307938DF853301A93544647
:1053E000052214F8011B5848FAF77AFF049AD8B935
:1053F000D10644BF20238DF85330130744BF2B231D
:105400008DF853309AF800302A2B15D0079A54465D
:1054100000204FF00A0C214611F8013B303B092BCC
:105420004ED9B0B1079214E0A0EB080309FA03F3D8
:1054300013430493A246D2E7039B191D1B680391F3
:10544000002BBBBF5B4242F0020207930793B8BF39
:10545000049223782E2B0CD163782A2B35D1039B11
:105460001A1D1B680392002BB8BF4FF0FF330234A4
:105470000593DFF8E4A0217803225046FAF730FFC5
:1054800040B14023A0EB0A0003FA00F0049B034361
:105490000134049314F8011B2C488DF828100622BF
:1054A000FAF71EFF00283FD0294B1BBB039B073395
:1054B00023F0070308330393099B3B44099367E7F1
:1054C0000CFB02320C460120A5E7002301340593B2
:1054D00019464FF00A0C204610F8012B303A092AE1
:1054E00003D9002BC5D00591C3E70CFB012104466D
:1054F0000123F0E703AB00932A46164B04A930467C
:10550000FDF7F0FF0746781CD6D16B6ED90705D49E
:10551000AB899A0502D4A86D00F0AFFAAB895B069F
:105520003FF512AF099811E703AB00932A46094BE8
:1055300004A93046FEF76EFAE4E700BF8465000870
:10554000A465000864650008526400085C640008F3
:10555000E5340008D752000858640008F8B50E4634
:105560001446054618B183690BB900F0E7F9214BE1
:105570009C422BD16C68A369A360A3891A072FD51D
:1055800023696BB323692068C01A6369F6B283424A
:10559000374604DC2146284600F03CF930BBA368BE
:1055A000013BA36023685A1C22601E7063690130AE
:1055B000834204D0A389DB0706D50A2E04D12146F5
:1055C000284600F027F988B93846F8BD0A4B9C42B6
:1055D00001D1AC68CFE7094B9C4208BFEC68CAE731
:1055E0002146284600F01AF80028CBD04FF0FF37AC
:1055F000EAE700BF84650008A46500086465000848
:105600000346084641B1FF2A04D98A221A604FF0A6
:10561000FF3070470A70012070470000324B70B5B0
:105620001D6806460C4625B1AB6913B9284600F043
:1056300085F92E4B9C420FD16C68A389B4F90C20DC
:1056400019072CD4DD0611D40923336042F040033E
:10565000A3814FF0FF303EE0254B9C4201D1AC6866
:10566000EBE7244B9C4208BFEC68E6E7580712D5ED
:10567000616B41B104F14403994202D03046FFF717
:105680000FFD00236363A38923F02403A381002378
:10569000636023692360A38943F00803A38123691E
:1056A0004BB9A38903F42073B3F5007F03D02146DF
:1056B000304600F007FAA089B4F90C2010F001037D
:1056C0000AD00023A36063695B42A361236943B9E5
:1056D00010F08000BAD170BD810758BF6369A36024
:1056E000F4E70020F7E700BF5800002084650008B9
:1056F000A46500086465000808B5062000F04AFAB1
:10570000012000F05DFB00008A892DE9F04105468B
:1057100010070C4658D44B68002B05DC0B6C002B93
:1057200002DC0020BDE8F081E66A002EF9D00023FB
:1057300012F480522F682B6032D0606DA3895A0713
:1057400005D56368C01A636B0BB1236CC01A0023C4
:105750000246E66A216A2846B047431CA38906D15F
:1057600029681D292CD82A4ACA40D60728D50022E4
:105770006260D9042269226004D5421C01D12B68E1
:1057800003B96065616B2F600029CAD004F144033E
:10579000994202D02846FFF783FC00206063C1E7EE
:1057A000216A01232846B047411CC7D12B68002B32
:1057B000C4D01D2B01D0162B01D12F60B1E7A389D6
:1057C00043F04003A381ADE70F69002FA9D09307F1
:1057D0000E6808BF4B690F6018BF0023A6EB0708CF
:1057E0008B60B8F1000F9CDD216AA66A43463A46F9
:1057F0002846B047002806DCA38943F04003A38174
:105800004FF0FF308EE70744A8EB0008E9E700BF40
:105810000100402038B50B6905460C4613B9002538
:10582000284638BD18B183690BB900F087F8144BCE
:105830009C421BD16C68B4F90C30002BEFD0626E27
:10584000D00704D4990502D4A06D00F015F92846BC
:105850002146FFF759FF636EDA070546E0D4A389B6
:105860009B05DDD4A06D00F008F9D9E7054B9C42FB
:1058700001D1AC68DFE7044B9C4208BFEC68DAE773
:1058800084650008A465000864650008002310B55D
:105890000446C0E90033C0E9043383608181436674
:1058A000C2818361194608225C30FDF775FD054B06
:1058B0006362054BA362054BE362054B24622363DD
:1058C00010BD00BFCD5B0008EF5B0008275C00083F
:1058D0004B5C0008014900F0AFB800BF1558000844
:1058E00070B54A1E682555430E4605F17401FFF751
:1058F00025FC044640B10021C0E900160C30A06030
:1059000005F16802FDF748FD204670BD014800F032
:10591000B3B800BFC4AF0020014800F0AEB800BF6C
:10592000C4AF0020014800F0A7B800BFBFAF0020FF
:10593000014800F0A2B800BFBFAF002010B5044678
:10594000FFF7F0FFA3691BB1BDE81040FFF7F0BF00
:10595000C4E912332365134B134A1B68A262A342A6
:1059600004BF0123A361204600F020F860602046B8
:1059700000F01CF8A060204600F018F80022E0605B
:1059800004216068FFF782FFA06801220921FFF768
:105990007DFFE06802221221FFF778FF0123A36157
:1059A000D2E700BFA4610008D5580008F8B5074643
:1059B000FFF7ACFF1E4B1E68B36913B93046FFF703
:1059C000BDFF4836D6E90134013B03D533680BB33C
:1059D0003668F7E7B4F90C50D5B9164BE36004F11B
:1059E0005800656600F047F8FFF796FFC4E90155D7
:1059F000C4E904552560A5610822294604F15C002C
:105A0000FDF7CAFCC4E90D55C4E912552046F8BD9E
:105A10006834D9E704213846FFF762FF0446306056
:105A20000028D5D1FFF778FF0C233B60EEE700BFDD
:105A3000A46100080100FFFF2DE9F84306468846EF
:105A400000F148040027D4E90195B9F1010905D511
:105A50002468002CF7D13846BDE8F883AB89012BC8
:105A600007D9B5F90E30013303D029463046C04777
:105A700007436835E9E770477047704770B50E46D1
:105A8000B1F90E10002996B014461D4607DA00231E
:105A90002B60B3891A0610D44FF480630EE06A4677
:105AA00000F0FAF80028F2DB019A02F47042A2F545
:105AB00000535A425A412A60EEE7402300202360F7
:105AC00016B070BD8B8973B59D0706460C4607D589
:105AD00004F14703236023610123636102B070BDB9
